S0250000433A2F435344544B34322F53444B2F6275696C642F6170702F2F6170702E7372656315
S3158824000021436587E500248800000000000000005D
S31588240010FA630B620AD109D014B16099016C409BAA
S3158824002013B514B66E6F40EA0168C09912B704D026
S31588240030006805D006D007D74B9EB06701F0006FBD
S315882400400EB440EAD06780990DB540DD7C4C0DB35B
S31588240050259C809B0CB540E9D0670CB200C20B97CF
S315882400600A91099000EF066314003082A00224883E
S31588240070B8022488C40224885D0224883C003082FD
S31588240080180030821100248800003082FB6308D04F
S315882400900FB08098006E0FB30FB710B5096260DF72
S315882400A004D605D606D607D54B9C006D01F0006F7D
S315882400B00BB440EAC56760980AB440DC499B40EA99
S315882400C000650997089000EF05630065140030825F
S315882400D00000248810003082D00224882D012488A8
S315882400E018003082FD6304D004670BB60BB405620E
S315882400F0031FE80F006D0AB40AB50BB6031FC40E96
S3158824010000650AB23019230000DA0597049000EFB7
S3158824011003630065300000001000308200003082BE
S31588240120200324881000000014003082FC630762B0
S315882401302AB5809D006E04D67C4C29B3449C809B2A
S3158824014082F3086D27B640EA006F24B5809D24B3D0
S31588240150539C016F809B040540EAEBEEF6220494B7
S31588240160409C215A0E601D5A2960045A0660025AF8
S3158824017021601522017215602A10F94A0E5A2760C1
S31588240180211028721260295A0660217219602272F7
S3158824019015B219601C102C5A0F612C72186113B26F
S315882401A01210016A12B640C6121012B530198F0081
S315882401B0006C0D1010B2071010B2051010B203107F
S315882401C010B2011010B2409A022240EA0065301912
S315882401D082000494BA17006514003082180030828D
S315882401E011002488340030821C003082200030821A
S315882401F0D802248824003082280030822C00308239
S315882402003000308238003082FC63076206D105D0FC
S315882402100AB1A0990467599D40EA839C8099599C80
S3158824022040EA84986099599B40EA90670797069193
S31588240230059000EF0463006514003082FF6AFD632D
S315882402408CEA0562052A05B6809E629C40EB856702
S31588240250059700EF0363006514003082FD63056209
S3158824026004D007B0809807B5409C40EA016C609812
S31588240270E0F1146C519B40EA0065F3171400308230
S31588240280E802248800000000000000000000000026
S3158824029000000000000000000000000000000000AC
S315882402A025733A25643A2055736572204150502027
S315882402B053544152540A0D007372632F73646B2E00
S315882402C0630000004D61696E5461736B0000000001
S315882402D04F535461736B00004D414C4C4F435F46DA
S315882402E041494C454400000048656C6C6F2C205766
S315882402F06F7264215F5F746573745F666F74610A55
S315882403000D0000000000000000000000000000002E
S31588240310000000000000000000000000000000002B
S31588240320010000000000000000000000000000001A
S7058824008DC1
